:020000040800F2
:1000000000C00120890100082D19000831190008DD
:1000100035190008391900083D19000800000000D2
:10002000000000000000000000000000411900086E
:100030004519000800000000491900084D19000882
:10004000DB010008DD010008DF010008E101000814
:10005000E3010008E5010008E7010008E9010008E4
:10006000EB010008ED010008EF010008F1010008B4
:10007000F3010008F5010008F7010008F901000884
:10008000FB010008FD010008FF0100080102000853
:100090000302000805020008070200080902000820
:1000A0000B0200080D0200080F02000811020008F0
:1000B00013020008150200081702000819020008C0
:1000C0001B0200081D0200081F0200082102000890
:1000D0002302000825020008270200082902000860
:1000E0002B0200082D0200082F0200083102000830
:1000F0003302000835020008370200083902000800
:100100003B0200083D0200083F02000841020008CF
:10011000430200084502000847020008490200089F
:100120004B0200084D0200084F020008510200086F
:10013000530200085502000857020008590200083F
:100140005B0200085D0200085F020008610200080F
:1001500063020008650200086702000869020008DF
:100160006B0200086D0200086F02000871020008AF
:10017000730200087502000877020008790200087F
:100180007B0200087D0200080A490B4A0B4B9A4289
:10019000BEBF51F8040B42F8040BF8E70849094ABE
:1001A00000209142BCBF41F8040BFAE701F0E2FAEB
:1001B00001F0DCFB3471000800000020FC0E002080
:1001C000000F002038120020FEE7FEE7FEE7FEE702
:1001D000FEE7FEE7FEE7FEE7FEE7FEE7FEE7FEE7F7
:1001E000FEE7FEE7FEE7FEE7FEE7FEE7FEE7FEE7E7
:1001F000FEE7FEE7FEE7FEE7FEE7FEE7FEE7FEE7D7
:10020000FEE7FEE7FEE7FEE7FEE7FEE7FEE7FEE7C6
:10021000FEE7FEE7FEE7FEE7FEE7FEE7FEE7FEE7B6
:10022000FEE7FEE7FEE7FEE7FEE7FEE7FEE7FEE7A6
:10023000FEE7FEE7FEE7FEE7FEE7FEE7FEE7FEE796
:10024000FEE7FEE7FEE7FEE7FEE7FEE7FEE7FEE786
:10025000FEE7FEE7FEE7FEE7FEE7FEE7FEE7FEE776
:10026000FEE7FEE7FEE7FEE7FEE7FEE7FEE7FEE766
:10027000FEE7FEE7FEE7FEE7FEE7FEE7FEE700BF7C
:1002800008B501214FF4804000F028FA4FF4804077
:100290000021BDE8084000F021BA00BF4FF46053D0
:1002A000C4F20103186070478A084FF46053C4F227
:1002B0000103023201F0030130B4890053F82250E7
:1002C0000F2404FA01F425EA040443F8224053F809
:1002D000224000FA01F0044343F8224030BC70474A
:1002E000DC23C4F227231860704700BF4FF48063FB
:1002F000C4F22723186070474FF46053C4F201031F
:10030000186AC0F3002070474FF46053C4F2020330
:100310000022196841F0010018609A60186843F2E1
:10032000100120F0847020F48030C2F20041186087
:100330005960196821F480201860DA60704700BFA6
:1003400043F60203C4F2020300221A7018707047C9
:1003500082B04FF4605200230193C4F2020210688D
:1003600083030CD5019A511C0191019B4FF46053FA
:10037000C4F202031868C0F3404002B0704701990C
:100380004B1C01930198B0F5A06FE8D1EEE700BFD8
:100390004FF46053C4F202031A6822F0F80141EAF4
:1003A000C0001860704700BF0023C4F247231860E4
:1003B000704700BF43F67003C4F202030022012815
:1003C0001A701A7004D0042801D1052018707047E3
:1003D000187070474FF46863C4F247231860704781
:1003E00030B40143029D41EA82125B084FF460542D
:1003F00042EA0565591EC4F2020445EA0140606004
:1004000030BC70476023C4F247231860704700BFB8
:100410004FF460538001C4F2020340EA0171C3F853
:10042000841070476823C4F247231860704700BFE8
:100430004C23C4F247231860704700BF4FF4605349
:10044000C4F202039A6822F0EC62104301439960FF
:10045000704700BF4FF46053C4F202039A6822F061
:100460007842104301439960704700BF4FF46053D6
:10047000C4F202039A6822F00301084398607047AF
:100480004FF46053C4F20203986800F00C00704708
:100490004FF46053C4F202039A6822F0F00108435B
:1004A000986070474FF46053C4F202039A6822F4D4
:1004B000E0510843986070474FF46053C4F2020360
:1004C0009A6822F4604141EAC0009860704700BF1A
:1004D0004FF46053C4F2020310B49A6802F00C01A6
:1004E000042922D0082926D04FF41052C0F2F40279
:1004F00002604FF46053C4F2020321499C68C4F3C4
:1005000003140C5D22FA04F242609C68C4F3822456
:100510000C5D22FA04F484609B68C3F34233C95C27
:1005200022FA01F2C26010BC70474FF49052C0F240
:100530007A020260DDE75C68596814F4800F5C6839
:1005400001F03F0214BF4FF490534FF41053C4F323
:1005500088114FF4605414BFC0F27A03C0F2F40360
:10056000C4F20204B3FBF2F303FB01F26168C1F3CE
:1005700001435C1C6100B2FBF1F20260B9E700BF0D
:100580000000002000F44073B3F5407F0CD14FF41D
:100590006053C4F2020320F070419A6821F4407164
:1005A00022F4F812114399604FF46053C4F202032D
:1005B00000051A6F010D11431967704740F63C633F
:1005C000C4F24723186070474FF46463C4F24723B2
:1005D000186070474FF4AE73C4F247231860704739
:1005E0004FF46053C4F202031A6B19B922EA0000F7
:1005F0001863704710431863704700BF4FF460538F
:10060000C4F202035A6B19B922EA0000586370471A
:1006100010435863704700BF4FF46053C4F20203A5
:100620009A6B19B922EA00009863704710439863E7
:10063000704700BF4FF46053C4F202031A6C19B93B
:1006400022EA00001864704710431864704700BF26
:100650004FF46053C4F202035A6C19B922EA000045
:100660005864704710435864704700BF4FF460539C
:10067000C4F202031A6919B922EA0000186170472E
:1006800010431861704700BF4FF46053C4F2020377
:100690005A6919B922EA000058617047104358613D
:1006A000704700BF4FF46053C4F202039A6919B94E
:1006B00022EA00009861704710439861704700BFBC
:1006C0004FF46053C4F202031A6A19B922EA000017
:1006D0001862704710431862704700BF4FF46053B0
:1006E000C4F202035A6A19B922EA0000586270473C
:1006F00010435862704700BF4FF46053C4F20203C6
:100700001A6D19B922EA0000186570471043186580
:10071000704700BF4FF46053C4F202035A6D19B919
:1007200022EA00005865704710435865704700BFC3
:100730004FF46053C4F202039A6D19B922EA000023
:100740009865704710439865704700BF4FF4605339
:10075000C4F202031A6E19B922EA00001866704743
:1007600010431866704700BF4FF46053C4F2020391
:100770005A6E19B922EA000058667047104358664D
:10078000704700BF43F60D03C4F202031A7819B98B
:1007900022EA00001870704710431870704700BFBD
:1007A0004309012B0ED04FF46051C4F20201022B19
:1007B0000CBF096F496F00F01F0021FA00F303F02E
:1007C000010070474FF46052C4F202021168F2E770
:1007D0004FF46053C4F202035A6F42F080705867BE
:1007E000704700BF4FF46053C4F20203D968084257
:1007F0000CBF00200120704743F60E03C4F2020331
:100800001870704708B501214FF08050FFF758FF6E
:100810004FF080500021BDE80840FFF751BF00BFF6
:100820002023C4F20E231860704700BF4FF4E0434A
:10083000C4F200031A6822F0E00108431860704710
:100840001023C4F20E231860704700BFA023C4F227
:100850000E231860704700BFA423C4F20E23186053
:10086000704700BF4FF4E043C4F200031A6818B1A8
:1008700042F480401860704722F48041196070474C
:100880002423C4F20E231860704700BF4FF4E042E7
:10089000C4F2000210B414684FF46D4324F0030452
:1008A000CEF20003204310601869012940F00402D1
:1008B0001A610AD020BF4FF46D41CEF200010B69DE
:1008C00023F00400086110BC704730BFF3E700BF9D
:1008D0004FF4E043C4F200034FF46D42196841F055
:1008E000040018601968CEF2000241F0020018609E
:1008F000136943F00401116130BF70474FF4E043C6
:10090000C4F20003596808420CBF00200120704760
:100910004FF4E043C4F200031A6842EA8000186012
:10092000704700BF08B50023C4F2010398425BD0B2
:10093000B0F1804F62D04FF48061C4F20001884270
:1009400066D04FF40062C4F2000290426AD04FF4C5
:100950004063C4F2000398426ED04FF48051C4F259
:100960000001884272D04FF4A052C4F200029042BB
:1009700076D04FF48063C4F2010398427AD04FF4EA
:100980008041C4F2010188427ED04FF48842C4F213
:100990000102904200F084804FF49043C4F20103BE
:1009A000984200F089804FF4C051C4F2000188429F
:1009B00000F08E804FF4E052C4F20002904200F04A
:1009C00091804FF40053C4F20003984200D008BD58
:1009D00001214FF48070FFF773FE4FF48070002107
:1009E000BDE80840FFF76CBE01200146FFF776FE28
:1009F00001200021BDE80840FFF770BE012001463C
:100A0000FFF75EFE01200021BDE80840FFF758BE59
:100A100002200121FFF754FE02200021BDE808401A
:100A2000FFF74EBE04200121FFF74AFE04200021FB
:100A3000BDE80840FFF744BE08200121FFF740FE53
:100A400008200021BDE80840FFF73ABE1020012130
:100A5000FFF736FE10200021BDE80840FFF730BE4A
:100A600020200121FFF72CFE20200021BDE80840B6
:100A7000FFF726BE02200121FFF730FE02200021F1
:100A8000BDE80840FFF72ABE01214FF48030FFF790
:100A900025FE4FF480300021BDE80840FFF71EBE60
:100AA00001214FF40030FFF719FE4FF40030002110
:100AB000BDE80840FFF712BE01214FF48020FFF788
:100AC0000DFE4FF480200021BDE80840FFF706BE70
:100AD00040200121FFF7F4FD40200021BDE808403F
:100AE000FFF7EEBD80200121FFF7EAFD8020002105
:100AF000BDE80840FFF7E4BD00220388C4F201020C
:100B0000904270B49BB21AD04FF48062C4F20102DA
:100B1000904214D0B0F1804F11D04FF48062C4F2F3
:100B2000000290420BD04FF40062C4F200029042E7
:100B300005D04FF44062C4F20002904205D14FF656
:100B40008F724C881A4042EA04034FF48052C4F278
:100B50000002904221D04FF4A052C4F20002904211
:100B60001BD04FF6FF420E894C680D881A400023B7
:100B7000C4F20103324398420280C462058509D061
:100B80004FF48062C4F20102904203D001238382B9
:100B900070BC7047897A0186F8E703804A68098843
:100BA000C2620185F2E700BF00234FF0FF314160D0
:100BB0000380038143808372704700BF0185828276
:100BC000704700BF038823F0700213041A0C11430E
:100BD0000180704741627047C1627047406A704748
:100BE000008D80B2704700BF038829B923F002014D
:100BF0000A04130C0380704799B241F0020202808C
:100C0000704700BF038829B923F004010A04130CBC
:100C10000380704799B241F004020280704700BF20
:100C2000038829B923F080010A04130C038070475C
:100C300099B241F080020280704700BF038823F020
:100C4000080213041A0C028003889AB2114301802F
:100C5000704700BF038823F4407213041A0C02800B
:100C600003889AB211430180704700BF038829B9F5
:100C700023F001010A04130C0380704799B241F07C
:100C800001020280704700BF2DE9F001048CB1F829
:100C900002C08E890F8824F0010213041D0C058404
:100CA000048C8588028B24F0020322F07304220452
:100CB00000241B044CEA0606C4F20104120C1B0CAF
:100CC000B6B2A042ADB242EA070246EA03030DD033
:100CD0004FF48064C4F20104A04207D08968858083
:100CE000028341630384BDE8F00170474FF6F77457
:100CF000B1F80EC0B1F812800F8A8E881C4044EA09
:100D00000C0C4FF6FB734FF6FF4448EA07072C40E4
:100D10000CEA0303BDB233432543DFE72DE9F003BB
:100D2000048C8D890F884E8824F0100213041C0C4B
:100D30000484028C8488038B22F020021204120C9B
:100D400023F4E6431B0442EA051200251B0CC4F2FF
:100D5000010543EA072342EA0612A842A4B29BB265
:100D600092B20DD04FF48065C4F20105A84207D0BD
:100D700089688480038381630284BDE8F00370473F
:100D80004FF67F76B1F80E90B1F81080B1F804C03C
:100D90004F8A16404FF2FF35254046EA09164FF6B6
:100DA000BF72324045EA880442EA0C1244EA8704E2
:100DB00092B2A4B2DCE700BF2DE9F003048C8D8968
:100DC0004F880E8824F4807213041C0C0484028C57
:100DD0008488838B22F400721204120C42EA0522EA
:100DE00023F0730300251B04C4F201051B0C42EA27
:100DF0000722A842A4B243EA060392B20DD04FF4F0
:100E00008065C4F20105A84207D089688480838385
:100E1000C1630284BDE8F00370474FF2FF76B1F87A
:100E20000E90B1F81080B1F804C04F8A16404CF60D
:100E3000FF75254046EA09264FF6FF32324045EA63
:100E4000081442EA0C2244EA071492B2A4B2DCE786
:100E5000F0B4048CB1F80CC00F884E8824F4805292
:100E600013041D0C0584048C8588838B24F40052A4
:100E7000120423F4E6442304140C44EA0C32002444
:100E80001B0CC4F2010443EA072342EA0632A042E3
:100E9000ADB29BB292B20CD04FF48064C4F20104A4
:100EA000A04206D089688580838301640284F0BCF7
:100EB00070474BF6FF740E8A2C4044EA8615ADB29B
:100EC000F0E700BF00230380438083808360838139
:100ED000C381038243827047038C10B401249BB208
:100EE00004FA01F423EA0404048400F1180379B13C
:100EF00008290DD00439C1F34E0148F6FF70CC58D3
:100F00002040C8501202C85892B21043C85008E09E
:100F100049084FF68F70CC582040C850C85802433B
:100F2000CA5010BC704700BF41637047816370476F
:100F3000C163704701647047038B23F07002130490
:100F40001A0C114301837047038B23F4E04213040E
:100F50001A0C42EA01218BB203837047838B23F082
:100F6000700213041A0C114381837047838B23F49E
:100F7000E04213041A0C42EA01218BB283837047CA
:100F8000038B23F0080213041A0C114301837047EA
:100F9000038B23F4006213041A0C42EA01218BB282
:100FA00003837047838B23F0080213041A0C114348
:100FB00081837047838B23F4006213041A0C42EA86
:100FC00001218BB283837047038B23F00402130447
:100FD0001A0C114301837047038B23F480621304BE
:100FE0001A0C42EA01218BB203837047838B23F0F2
:100FF000040213041A0C114381837047838B23F47A
:10100000806213041A0C42EA01218BB28383704779
:10101000038B23F0800213041A0C114301837047E1
:10102000038B5A04530C43EA01218AB202837047AE
:10103000838B23F0800213041A0C114381837047C1
:10104000838B5A04530C43EA01218AB2828370478E
:10105000038C23F0020213041A0C1143018470471D
:10106000038C23F0080213041A0C11430184704707
:10107000038C23F0200213041A0C42EA01118BB2F4
:1010800003847047038C23F0800213041A0C42EA95
:1010900001118BB203847047038C23F40072130494
:1010A0001A0C42EA01218BB203847047038C23F4AB
:1010B000006213041A0C42EA01218BB203847047C8
:1010C000038C23F4005213041A0C42EA01318BB250
:1010D0000384704710B4048C012303FA01F3A4B213
:1010E00024EA03030384038C02FA01F242EA0301B7
:1010F0008AB2028410BC704710B4048C042303FA33
:1011000001F3A4B224EA03030384038C02FA01F27C
:1011100042EA03018AB2028410BC70470B88F0B423
:10112000002B32D0042B58D0082B028C4E8800F0B4
:1011300082808F880D89CC8822F480510B041A0C90
:101140000284818B038C21F4407223F40051120538
:101150004B045B0C110D41EA072243EA06318BB2C6
:1011600042EA053291B243F4805281830284838B38
:1011700023F440610A04130C8383818B8AB242EA10
:10118000042399B28183F0BC7047038C4E888D880C
:101190000F89CC8823F001010A04130C0384018B0E
:1011A000038C21F0F30211040A0C23F00A0342EA33
:1011B00007111B048AB21B0C46F001010B432A43A2
:1011C00002830384028B22F00C0319040A0C0283AD
:1011D000038B99B221430183D5E7028C4E888D8819
:1011E0000F89CC8822F010010B041A0C0284018BA9
:1011F000038C21F44072110523F0A0030A0D190499
:1012000042EA07320B0C43EA061391B241EA052287
:1012100099B241F0100392B202830384018B21F44E
:1012200040621304190C0183028B93B243EA042138
:101230008AB20283A7E722F4807213048D880F8993
:10124000CC88190C0184828B038C22F0F30123F4E7
:1012500020630A041904120C0B0C43EA062342EA29
:1012600007118AB299B241F480732A4382830384BE
:10127000828B22F00C010B041A0C8283818B8BB2BF
:10128000234383837FE700BF002301220380438041
:101290008280C380038170474A888B882DE9F001E2
:1012A0000C88002A0CBF02260026012B14BF4FF425
:1012B00080754FF4007514BF4FF001084FF002081D
:1012C000002C53D0048CB1F808C0CF8824F0100152
:1012D0000D042D0C0584048B018C24F4407424052A
:1012E00021F0A001240D0904090C44EA0C3441EA60
:1012F0000212A4B291B244EA032341F010029BB25D
:1013000003830284018B21F440631A04110C0183CE
:10131000038B9AB242EA07218BB20383028C22F03C
:1013200001010B041A0C0284018B038C21F0F302DF
:10133000110423F00A030A0C19040B0C42EA0C12E4
:1013400091B243F0010241EA08081643A0F8188060
:101350000684038B23F00C010A04130C0383018B16
:101360008AB217430783BDE8F0017047048CB1F8D7
:1013700008C0CF8824F001010C04210C0184018BEA
:10138000048C21F0F3010904090C24F00A0441EA59
:101390000C11240489B242F00102240C0B431443C3
:1013A00003830484018B21F00C021304190C0183C4
:1013B000028B93B23B430383018C21F01002130490
:1013C000190C0184028B038C22F440710A0523F06E
:1013D000A003110D1B0441EA0C32190C41F010035B
:1013E00092B2154343EA061605830684018B21F465
:1013F00040621304190C0183028B93B243EA07275E
:10140000BFB20783AFE700BF406B7047806B704788
:10141000C06B7047006C7047038B23F00C02130401
:101420001A0C0283038B9AB211430183704700BFE9
:10143000038B23F4406213041A0C0283038B9AB2C9
:1014400042EA01218BB20383704700BF838B23F0F4
:101450000C0213041A0C8283838B9AB2114381838A
:10146000704700BF838B23F4406213041A0C8283FD
:10147000838B9AB242EA01218BB28383704700BF0B
:101480000B88B1F802C08A89F0B48F88CE880D89A4
:101490004C894CEA03013943314329432143114329
:1014A0008BB2A0F84430F0BC704700BF002303802B
:1014B00043808380C380038143818381704700BF61
:1014C000B0F8443021B959044A0CA0F844207047C0
:1014D0006FEA43436FEA53418AB2A0F84420704751
:1014E000838829B923F004010A04130C8380704710
:1014F00099B241F004028280704700BF838829B905
:1015000023F001010A04130C8380704799B241F063
:1015100001028280704700BF83899BB21AB923EA17
:101520000101818170471943818170478182704731
:10153000038A19420CBF002001207047C9438AB2B8
:1015400002827047038A828911EA030092B203D0B3
:1015500011420CBF00200120704700BFC9438AB26E
:10156000028270470A43A0F84820704783899BB2E3
:101570001AB923EA010181817047194381817047BB
:10158000838829B923F008010A04130C838070476B
:1015900099B241F008028280704700BF038923F0AE
:1015A00007010A04130C0381704700BF038923F06D
:1015B000700213041A0C1143018101898BB243F0AC
:1015C00007020281704700BF602970B427D0068CE3
:1015D00026F0010425042E0C0684058B048C25F0CE
:1015E000F3052D0424F00A042D0C240445F0010514
:1015F000240C45EA031344F001049BB22243038305
:101600000284038923F0700213041A0C1143018130
:1016100003899AB242F00701018170BC7047058CC2
:1016200025F0100425042C0C0484058B048C25F46F
:10163000407524F0A0042D0524042D0D240C45F440
:10164000807544F0100445EA033344EA02129BB269
:1016500092B203830284D4E710B40489E4B2214334
:101660000A4342EA03239CB20481018921F07702F4
:101670001304190C41F07702028110BC704700BFBF
:1016800010B40489E4B221430A4342EA03239CB222
:10169000048101898AB242F48043038110BC7047FF
:1016A000038923F0700213041A0C1143018170475F
:1016B000838823F0700213041A0C828083889AB204
:1016C00011438180704700BF038923F00702130490
:1016D0001A0C028103899AB211430181704700BF3D
:1016E000038923F0800213041A0C028103899AB241
:1016F00011430181704700BF10B40489E4B2214353
:101700000A4342EA03239CB2048110BC704700BF25
:1017100070B40589048B068C24F4407426F02206EC
:1017200024F003043604360C25F007052404240CA9
:1017300032432D0444F480762D0C42EA031346F024
:10174000010429439EB201810483068470BC704762
:10175000838829B923F080010A04130C8380704721
:1017600099B241F080028280704700BFA0F850100B
:10177000704700BF4FF46D42CEF200024FF4605349
:10178000D2F88810C4F2020341F47000C2F8880055
:101790001968002241F0010018609A60186843F24D
:1017A000100120F0847020F48030C2F200411860F3
:1017B0005960196882B021F480201860DA600092C4
:1017C00001921A6842F480311960184603E00099CA
:1017D000B1F5A06F09D0036803F4003201920099BB
:1017E0004B1C0093019A002AF1D04FF46050C4F2D0
:1017F0000200036813F400320DD001210191019819
:1018000001280CD04FF46D43CEF200034FF000617D
:10181000996002B07047019201980128F2D14FF40B
:101820006053C4F202034FF4E042196CC4F20002A8
:1018300041F080501864116841F4804010609A684B
:101840009A60996841F400409860996845F20842AE
:1018500041F4A050C0F2407298605A60196841F09B
:1018600080721A60184601684FF460538A01C4F20E
:101870000203F8D54FF47052C4F2020240F2056040
:101880001060996821F003029A60986840F00201A4
:1018900099609A6802F00C000828FAD1B2E700BFFC
:1018A0004FF46053C4F202039A6802F00C0004285B
:1018B00012D0082815D04FF41051C0F2F4014FF4A3
:1018C0006050C4F20200184B8268C2F303101A5C25
:1018D00021FA02F1196170474FF49051C0F27A0178
:1018E000EDE758685A6810F4800F586802F03F011D
:1018F00014BF4FF490534FF41053C0F388124FF4B9
:10190000605014BFC0F27A03C0F2F403C4F20200C4
:10191000B3FBF1F303FB02F14268C2F30143581C2D
:101920004200B1FBF2F1CAE710000020704700BF8F
:10193000FEE700BFFEE700BFFEE700BFFEE700BF17
:10194000704700BF704700BF704700BF00F000B88D
:1019500040F22402C2F2000240F60073C2F2000319
:1019600001211160186842181A60704770B503F0C1
:101970001FFC4EF210034FF46D41CEF20003CEF285
:1019800000014AF27F20F025094CC0F2190058608E
:10199000002281F8235007219A60264615461960D7
:1019A0002368002BFCD0356001F04EFAF8E700BF49
:1019B0002400002000000000006810B540000C4624
:1019C00004F088FB06A3D3E9002304F0E9FB06A397
:1019D000D3E9002304F032FAC4E9000110BD00BFCE
:1019E000C3718BB665BC493F182D4454FB21094097
:1019F0004FF46D4340F0BF60CEF2000340F400317D
:101A0000D9607047C37830B47BB902784FF4614332
:101A10005109CEF2000302F01F022031012000FA2A
:101A200002F243F8212030BC70474FF46D44CEF2EF
:101A300000044578E16884780378CA43C2F302223F
:101A4000C2F10401C9B205FA01F10F2545FA02F20B
:101A5000C9B222400A4303F16043110103F5614317
:101A6000CAB283F8002300784FF46143410900F0C3
:101A70001F02CEF20003012000FA02F243F82120F7
:101A8000D1E700BF21F060414FF46D4321F07F02A8
:101A9000CEF2000310439860704700BF4FF46D43CF
:101AA000CEF200031A6919B922EA000018617047E2
:101AB00010431861704700BF4EF21003CEF20003CE
:101AC00004281A680CBF42F0040222F004021A60D3
:101AD000704700BF016846F21002002321F00101A7
:101AE000C4F202020160036043608360C36003616B
:101AF00021239042436165D046F22802C4F20202DB
:101B0000904266D046F24001C4F20201884268D099
:101B100046F25803C4F2020398426AD046F27002B9
:101B2000C4F2020290426CD046F28801C4F2020173
:101B300088426FD046F2A003C4F20203984238D024
:101B400046F2B802C4F20202904275D046F2104149
:101B5000C4F20201884277D046F22843C4F202035D
:101B6000984278D046F24042C4F2020290427AD0C3
:101B700046F25841C4F2020188427CD046F27043DA
:101B8000C4F2020398427ED046F28842C4F20202B6
:101B9000904200F0818046F2A041C4F202018842E6
:101BA00000F0848046F2B843C4F2020398423BD06E
:101BB00070474FF4C041C4F202010023C2F23D035A
:101BC000CB6070474FF4C041C4F202013D238B60EB
:101BD00070474FF4C040C4F202004FF47462826058
:101BE00070474FF4C041C4F202014FF474138B608C
:101BF00070474FF4C040C4F202004FF0746282603C
:101C000070474FF4C041C4F202013D23C2F2000309
:101C1000CB6070474FF4C040C4F202004FF47462CE
:101C2000C2F20002C26070474FF4C840C4F2020022
:101C30004FF03D52C260BBE74FF4C040C4F2020017
:101C40004FF03D52C26070474FF4C841C4F20201E8
:101C50003D238B6070474FF4C840C4F202004FF43C
:101C60007462826070474FF4C841C4F202014FF4BD
:101C700074138B6070474FF4C840C4F202004FF0F9
:101C80007462826070474FF4C841C4F202013D2380
:101C9000C2F20003CB6070474FF4C840C4F20200A8
:101CA0004FF47462C2F20002C26070474FF4C84140
:101CB000C4F202010023C2F23D03CB60704700BFB3
:101CC0002DE9F00FD1F80CB0D1F800A0D1F81490A4
:101CD000D1F81880D1F81CC00F6A4B6B4E6A8D6A20
:101CE00002688C6B4BEA0A0A4AEA090949EA080ABF
:101CF00084B04AEA0C0A4AEA070701933E43354397
:101D0000019E0092354348F23F0C009E0294CFF2B0
:101D10001C0C06EA0C09029E0B6BCC6A0A69039341
:101D2000354345EA09054B68896805604569039EA6
:101D300025F0070534432C43446142608360C16051
:101D400004B0BDE8F00F7047002303604360836078
:101D5000C360036143618361C36103624362836261
:101D6000C362036343638363704700BF036819B9A9
:101D700023F001010160704743F0010202607047E7
:101D8000036819B923F400410160704743F400422D
:101D900002607047036819B923F0200101607047A1
:101DA00043F020020260704741607047406880B293
:101DB000704700BF036822B923F40022026001616A
:101DC000704743F40023036001617047036819B949
:101DD00023F480210160704743F480220260704741
:101DE0000AB9C16070470161704700BF0068C0F365
:101DF000C0407047006800F001007047406900F083
:101E00003800704710B44FF4C84246F20F444FF404
:101E1000C043C4F20202C4F20204C4F20203A042AC
:101E20008CBF104618468A004CBF4268026821F0F9
:101E3000F02121F0821313420CBF0020012010BCBE
:101E4000704700BF10B44FF4C84246F20F444FF43D
:101E5000C043C4F20202C4F20204C4F20203A0426C
:101E60008CBF1046184611F0005F21F0F02121F0E0
:101E7000821214BFC260826010BC70470B060CD582
:101E80004369AAB143F08003802943610FD00268FF
:101E900001F01E01114301607047802907D0002A1C
:101EA000F5D1036801F01E0123EA010202607047C8
:101EB00023F0800280294261F3D1704770B44FF45F
:101EC000C04246F20F454FF4C84421F0F023C4F25B
:101ED0000205C4F20204C4F2020223F0C316A842AF
:101EE00088BF224696B1046804F01E0000EAD1249F
:101EF00089004CBF5268126823F0821111EA020077
:101F000002D0201C18BF012070BC7047406900F04F
:101F10008004EDE710B44FF4C84246F20F444FF48A
:101F2000C043C4F20202C4F20204C4F20203A0429B
:101F30008CBF1046184611F0005F21F0F02121F00F
:101F4000821214BFC260826010BC704700000000A3
:101F50009FED010B704700BF000000000000F8FF7C
:101F60009FED010A704700BF0000C0FFAFF3008083
:101F7000F0B5102083B00121FEF732FB10200121C3
:101F8000FEF72EFB01200146FEF72AFB4FF4805599
:101F900001210220FEF724FBC4F202056846012459
:101FA00003F0D2FD002702234FF400722846694651
:101FB0000092C4F202078DF804308DF807404FF408
:101FC000806603F019FD4FF40063284669460093CC
:101FD000C4F2020603F010FD202238466946009242
:101FE00003F00AFD082369463046009303F004FD20
:101FF00028462246092103F0E9FD284622460B2106
:1020000003F0E4FD38462246052103F0DFFD2246B9
:102010003046032103F0DAFD20462146FEF718FB87
:1020200020462146FEF706FB0023C4F201034FF0D1
:1020300080421D89198B188C21F4407424F003060A
:1020400025F0070531040E0C20F022002C04240C8E
:1020500046F480710604300C4FF6FF7544F003041B
:1020600041F001011C8119831884DD621689148BEB
:10207000108C24F4407121F003010C0426F00706B3
:10208000210C360420F02200340C000441F480714D
:1020900044F0030641F00104010C168114831184FD
:1020A000D5621D88A8B240F001061E801488A1B236
:1020B00041F00105158072B640F6467640F6487547
:1020C00040F6407440F64C70C2F20006C2F20005C1
:1020D000C2F20004C2F20000002131802980216098
:1020E00001605962516262B603B0F0BD704700BF33
:1020F00001282DE9F00143D0012903D14FF080419F
:1021000000254D62214D224FB5F800C0214C224ED2
:10211000224823491FFA8CF8A7F80080B4F8008001
:102120004FF0000C1FFA88F8C4F2010CA6F80080EA
:10213000DCF824C01FFA8CFCA5F800C04FF0804CDE
:10214000DCF824C01FFA8CFCA4F800C0B5F800C06D
:102150003D8807680FFA8CFC2DB2C5EB0C05EF1912
:102160000760278834880D683EB224B2341B641996
:102170000C600068096810601960BDE8F0017047E4
:102180000020C4F2010000244462B5E7440F00209F
:10219000460F00204A0F0020480F0020400F00206B
:1021A0004C0F002070B40589048B068C24F4407415
:1021B00026F0220624F003043604360C25F0070529
:1021C0002404240C32432D0444F480762D0C42EA7E
:1021D000031346F0010429439EB20181048306845F
:1021E00070BC7047C1627047038829B923F00101B0
:1021F0000A04130C0380704799B241F00102028077
:10220000704700BF30B472B640F6467440F648706E
:10221000C2F20004C2F200000023002540F6407123
:1022200040F64C722380C2F200010380C2F2000229
:10223000C4F201054FF080400B6013606B62436293
:1022400062B630BC704700BF406A70474162704759
:102250002DE9F001002942D003469468958B13F8CC
:10226000016B675D0139B7424FF0000C01F00108C6
:1022700088B238D0A2F81CC0614680B3B8F1000F14
:102280000AD013F8015B665C0138AE4280B214D00C
:10229000A2F81CC0002110B3471E665C13F8015B56
:1022A000B8B2471EAE4213D0A2F81CC0002113F8EA
:1022B000015B665CAE42B8B2EAD10131157B89B2EE
:1022C0008D429183E7D8012300219377918307E022
:1022D0000131157B89B28D429183E8D8F3E7002064
:1022E000BDE8F0017047691C167B89B28E4291836C
:1022F000C3D8E8E72DE9F0470D4606461446E9B194
:102300004FF0000A4FF003094FF002080127013D8A
:1023100016F8012BA37DADB2032B08D8DFE803F03C
:102320003D022B12A08B2368195C91423CD084F8AB
:1023300016A0A27F012A13D0002DE8D1002528463F
:10234000BDE8F087A18BA368585C9042EFD14A1C8E
:10235000237B91B28B42A183EBD884F816A0A77798
:10236000A369002BEBD02069A18A984784F81EA0AE
:10237000002DCCD1E2E7A08B23691A54A18BB4F9CC
:102380001420481C83B29342A383D2DB217BA4F8A0
:102390001CA001B384F81690CBE72379A4F81CA005
:1023A0008BB1A7750123B7E7421C207993B29842FD
:1023B000A383BED8B4F91410A4F81CA0002915DD1D
:1023C00084F81680B5E7B4F91410002907DD84F805
:1023D00016800223A0E70022A275A777C0E7207B22
:1023E0000028A6D084F81690032395E7227B002AC4
:1023F000D0D10020A0759CE770B5434C0D46064631
:10240000237869BB5BB346F2B8404FF02051C4F269
:102410000200FFF7F7FC0028F5D04FF48050C4F21B
:102420000100402103F0EAF90028ECD046F2B84060
:10243000C4F202004FF03051FFF704FD46F2B840FD
:10244000C4F202000021FFF791FC4FF48050C4F267
:1024500001008021002203F0ABF90023237070BD3E
:102460005BB346F2B8404FF02051C4F20200FFF7D0
:10247000C9FC0028F5D04FF48050C4F2010040217F
:1024800003F0BCF90028ECD046F2B840C4F20200D8
:102490004FF03051FFF7D6FC46F2B840C4F20200CC
:1024A0000021FFF763FC4FF48050C4F2010080214B
:1024B000002203F07DF9002020702A46314613489F
:1024C00004F028F9124A46F2B8401146C4F202005C
:1024D0001561FFF7F5FB4FF480500122C4F20100B3
:1024E000802103F065F94FF48050C4F201004021CF
:1024F00003F08AF946F2B8400121C4F20200FFF766
:1025000035FC012121707EE7860F0020C40F0020DA
:10251000880F0020704700BF10B5184C23785BB3BC
:1025200046F2B8404FF02051C4F20200FFF76AFCB7
:102530000028F5D04FF48050C4F20100402103F090
:102540005DF90028ECD046F2B840C4F202004FF02A
:102550003051FFF777FC46F2B840C4F20200002188
:10256000FFF704FC4FF48050C4F2010080210022E8
:1025700003F01EF900202070002010BD860F0020FF
:1025800070B50C46064601B970BD2B4D2B785BB378
:1025900046F2B8404FF02051C4F20200FFF732FC7F
:1025A0000028F5D04FF48050C4F20100402103F020
:1025B00025F90028ECD046F2B840C4F202004FF0F2
:1025C0003051FFF73FFC46F2B840C4F20200002150
:1025D000FFF7CCFB4FF48050C4F2010080210022B1
:1025E00003F0E6F80020287022463146134804F034
:1025F00091F8134A46F2B8401146C4F20200146141
:10260000FFF75EFB4FF480500122C4F201008021ED
:1026100003F0CEF84FF48050C4F20100402103F0E3
:10262000F3F846F2B8400121C4F20200FFF79EFB26
:102630000121297070BD00BF860F0020C40F00204B
:10264000880F002038B5044600B938BD284D2B78D6
:102650005BB346F2B8404FF02051C4F20200FFF7DE
:10266000D1FB0028F5D04FF48050C4F20100402186
:1026700003F0C4F80028ECD046F2B840C4F20200DF
:102680004FF03051FFF7DEFB46F2B840C4F20200D3
:102690000021FFF76BFB4FF48050C4F20100802152
:1026A000002203F085F800202870124A46F2B84054
:1026B0001146C4F202001461FFF702FB4FF4805090
:1026C0000122C4F20100802103F072F84FF480501F
:1026D000C4F20100402103F097F846F2B84001210E
:1026E000C4F20200FFF742FB0121297038BD00BF90
:1026F000860F0020880F002010B5184C23785BB39C
:1027000046F2B8404FF02051C4F20200FFF77AFBC6
:102710000028F5D04FF48050C4F20100402103F0AE
:102720006DF80028ECD046F2B840C4F202004FF039
:102730003051FFF787FB46F2B840C4F20200002197
:10274000FFF714FB4FF48050C4F2010080210022F7
:1027500003F02EF80020207010BD00BF860F00206F
:102760002DE9F043022087B00121FDF739FF4FF436
:10277000806610200121FDF76BFFC4F202064FF4C2
:1027800080000121FDF72CFF07223046062103F0CF
:102790001DFA06A94FF040084FF480550024012788
:1027A000C4F20105022341F8188D4FF003093046A9
:1027B00069468DF804308DF806408DF807708DF865
:1027C000059003F019F94FF4E13208233946284601
:1027D0000292ADF81230ADF80C40ADF80E40ADF8F5
:1027E0001040ADF8144002F02BFF284602A902F079
:1027F00079FE3946284602F00BFF40F68873C2F294
:10280000000341F20401C4F2010159604FF48061F8
:1028100099614FF00061196040F6C471C2F2000185
:1028200040F68672C2F2000299604FF4007119619D
:102830004FF400315C61DC611C62DC62C3F83090F3
:102840005C639C63C3F80C805C629962147007B08F
:10285000BDE8F08307EE901A9FED080AB8EE677A9C
:1028600040F6007367EE000AC2F20003BCEEE01A05
:10287000196880ED011A0160704700BFCDCCCC3DD6
:10288000084B02681B68934205D341689B1A8B4230
:1028900006D200207047D2434168D0188842F8D34E
:1028A00001207047000F00204EF2100240F6007326
:1028B000CEF20002C2F2000392681B68826010B47C
:1028C000A82404FB01F14360C16010BC704700BF45
:1028D000C368F0B4002B3FD04EF21002CEF20002DB
:1028E0002249976842680E68B2423CD081688B42A8
:1028F0002DD90132B51A4AF27F24ED07C0F219042E
:1029000010D55B1A551CA342214627D92A4609E057
:10291000A342A3F5CD13A3F27F231FD9A3422A46D6
:102920001CD96A1C5B1AB2424AF27F2102F10105EE
:10293000C0F21901ECD14AF27F21C0F21901C36043
:10294000426081608F420CD2CA1B9A4209D9002191
:10295000C1600120F0BC70470120FBE7426081604C
:10296000F5E70020F6E78168ECE700BF000F0020E4
:102970004EF2100CF0B4CEF2000C1F4FDCF8083011
:102980003A684AF27F21A82404FB00F0C0F2190142
:1029900080B3DCF808603D68954226D0984229D97A
:1029A0000132AC1A14F0010F12D0C01A01324AF2EF
:1029B0007F238842C0F219030AD81BE08842A0F5A1
:1029C000CD10A0F27F2004F1010213D9884211D961
:1029D000C01AAA424AF27F2302F10104C0F219038D
:1029E000ECD14AF27F23C0F219039E42D0D29E1B43
:1029F000B042CDD2F0BC7047000F002000B50120DE
:102A000083B00146FDF7ECFD0020034601228DF85E
:102A100004308DF80730C4F20200032369460092A7
:102A20008DF8053002F0E8FF03B000BDFFF7A0BA53
:102A3000FFF75CBB2DE9F04102208AB00121FDF7D0
:102A4000F9FD002701200146C4F20207FDF7C8FD89
:102A500000254023012603224FF00208694638462C
:102A60004FF48064C4F2000400938DF805208DF8C3
:102A700004808DF806508DF8076002F0BDFF3846DF
:102A80004246062103F0A2F841F2670202A920465D
:102A90000392ADF80850ADF81050ADF80A508DF81B
:102AA0001250FEF729F805A8FEF70CFA602305A9D5
:102AB0002046ADF81430ADF81660ADF82050FEF7A2
:102AC000E3F820460821FEF75BFA20463146FEF780
:102AD000A7F820463146FEF7C9F80AB0BDE8F081F4
:102AE0004FF48060C4F200000021FEF7BFB800BFC1
:102AF0004FF48060C4F200000021FEF7B7B800BFB9
:102B000000B5082083B00121FDF76AFD01224FF4D2
:102B100080534FF4406000938DF80420002303227B
:102B2000C4F2020069468DF806308DF8052002F0E7
:102B300063FF03B000BD00BFFFF7DABA000000007A
:102B40002DE9F04714461D4606460F4603F052FC99
:102B500045EC104B8046894603F0E2F820462946B2
:102B600053EC102B03F098FD002855D129F00046B6
:102B70000023404631460022C4F2303303F082FD88
:102B800048B30023404649460022C3F6E07303F0F1
:102B90008DFD00285BD10023404649460022CBF63C
:102BA000E07303F08DFD00284ED1002340464946D6
:102BB0000022C3F6E07303F03FF941EC100B03F081
:102BC0001FF84046494653EC102B03F035F9824676
:102BD00021F0004701E08246074600230022C3F6A9
:102BE000B0434046314603F0DBFA52463B4603F021
:102BF0005DFD28BB42464B4643EC102B03F090F89A
:102C0000404653EC102B494603F016F922462B465A
:102C100003F0C6FABDE8F08742464B4643EC102B62
:102C200003F07EF822462B4651EC100B03F0B8FA65
:102C300002460B463046394603F0FEF8BDE8F08701
:102C400000200021BDE8F087C2463746C5E70023D3
:102C5000404649460022C3F6E07303F0EFF841EC2A
:102C6000100B03F05DF8ACE72DE9F843D1E900451E
:102C700088468146224651EC100B2B4603F0DCF8C7
:102C8000224606460F462B46D8E9020103F0D4F847
:102C900002460B463046394603F0ACFBC9E9000159
:102CA000BDE8F8832DE9F843D1E9024553EC102B38
:102CB000894680462946204603F0BEF8D9E900231C
:102CC00006460F462046294603F0B6F80B4600217B
:102CD0000246C3F6F071002003F08CFB02460B465F
:102CE0003046394603F05CFAC8E90001BDE8F883D4
:102CF0002DE9F843D1E9024553EC102B8946804673
:102D00002946204603F098F8D9E9002306460F46E5
:102D10002046294603F090F80B4600210246C3F6F0
:102D2000F071002003F066FB02460B463046394640
:102D300003F036FAC8E90001BDE8F88370B510EE7B
:102D4000904A002310EE100A24F000410022C4F241
:102D5000303310EE105A03F095FC10B300232146D7
:102D60000022C3F6E073284603F0A0FC0646214685
:102D7000284600220023CEB9CBF6E07303F0A0FC76
:102D800068B90023284621460022C3F6E07303F009
:102D900053F841EC100BBDE8704002F031BF3546EE
:102DA00034462A46234643EC102B70BDC3F6E0732D
:102DB00003F044F841EC100BBDE8704002F0B0BFE6
:102DC00008B500222DED048BB0EE408AF0EE608A4B
:102DD000B0EE419AF0EE619A002351EC110B03F032
:102DE00047FCB0EE480AF0EE680A10B1BDEC048B67
:102DF00008BD02F009FB18B1124B93ED000BF5E78B
:102E0000B0EE480AF0EE680A02F0C4FA0028F3D1E6
:102E1000B0EE490AF0EE690A02F0F6FA0028EBD1AA
:102E2000B0EE490AF0EE690A02F0B4FA0028E3D1E4
:102E300051EC180B53EC192BFFF782FE41EC100BF1
:102E4000D4E700BF201200202DE9F04F2DED028BBA
:102E5000AB4BDFF8B082ADF2445D03227E24342117
:102E600018461C705C7083F8322083F83320FFF71B
:102E7000C3FA4FF40070C4F2402041F2E01201683E
:102E800041F2E01341F2E015CEB2C2F20005C2F207
:102E90000002C2F20003203230463146243385F866
:102EA0002860FFF749FE28462030A0F1200102F0FB
:102EB000DBFCD8E976670022002330463946D5E9A5
:102EC000004503F0D5FB002801F03285D8E97823CE
:102ED0002046294602F0B0FFD8E97A2303F060F9D2
:102EE00098ED7C7B53EC172B04460D468DED087B4B
:102EF00003F0DCFB68B9834BD3E97E67204632469A
:102F00003B462946CDE9084503F0D0FB002801F0F7
:102F1000ED84DDE9080176A3D3E9002303F0B2FBD9
:102F200040B9DDE908010022002303F0C9FB0028B5
:102F300001F0418598ED161B8DED0A1B7248A0F13A
:102F40001C01FEF739FD41F2E012C2F2000292EDDF
:102F5000022BD8E98401D8E982238DED002B03F000
:102F60001FF9074641F2D010C2F20000D0E9002359
:102F70000C46DDE9000102F05FFF02460B463846D1
:102F8000214603F00DF9D8E986AB52465B4604466C
:102F90000D4603F08BFB68B95A49D1E98867204692
:102FA00032463B462946A246AB4603F07FFB00284B
:102FB00001F098840023504659460022CCF21403B5
:102FC00003F060FB40B9504659460022002303F04D
:102FD00077FB002801F0158598ED2E4B8DED024B07
:102FE00041F2E010C2F2000090ED005BD8E98C23C2
:102FF000D8E98E018DED145B03F0D2F841F2D013C5
:10300000C2F2000304460D46D3E90223DDE91401B0
:1030100002F012FF02460B462046294603F0C0F894
:10302000D8E9906732463B4604460D4603F03EFB26
:1030300078B9344A92ED926B204653EC162B294610
:103040008DED066B26462F4603F030FB002801F07D
:1030500045840023304639460022CCF2140303F0A5
:1030600011FB40B9304639460022002303F028FB0B
:10307000002801F0D78498ED460B8DED120BD8E9AE
:103080009445002200232046294603F0F1FA002847
:1030900001F030849DED008B51EC180BD8E996239C
:1030A00002F0CAFED8E9982303F07AF8D8E99A45E5
:1030B00022462B46CDE9000103F0F8FA78B9114811
:1030C000DDE9004590ED9C4B294653EC142B20463E
:1030D0008DED064B03F0EAFA002801F0FB83204651
:1030E000294605A3D3E9002303F0CCFAB8B90DE0D3
:1030F000E17A14AE47E117C0A4703D0AD72329C076
:10310000500F0020280000200412002020462946ED
:103110000022002303F0D4FA002801F0948498EDF3
:103120005E7B8DED067BDDE90A23DDE9120103F00C
:1031300037F8CDE90E01DDE90E23DDE9060103F0E4
:103140002FF8D8E97423CDE90401DDE9020103F089
:1031500027F8DDE9042303F023F80023CDE9160165
:10316000002250465946CBF6F073DFF8FC9203F08C
:1031700089FA50B90023504659460022C3F6F0732D
:1031800003F09EFA002801F0B88498ED3E3BD8E9A0
:103190009E2351EC130B8DED003B03F001F8DDE9AC
:1031A000042302F0FDFF0022CDE9AA0100235046CE
:1031B000594603F067FA48B95046594600224FF085
:1031C000804303F07DFA002801F09682D8E936ABFF
:1031D000D8E9A023DDE9040102F0E2FF52465B4694
:1031E00002F0DEFFA1A3D3E90023CDE918012046B8
:1031F0002946DFF8749203F045FA48B9204629467B
:103200009CA3D3E9002303F05BFA002801F0C682F7
:1032100098ED6E0BDDE90E0153EC102B8DED0C0BD0
:1032200002F0BEFFD8E9A223CDE90401DDE90201E5
:1032300002F0B6FFDDE9042302F0B2FFD8E9A423CF
:10324000CDE91A01DDE9040102F0AAFFDDE900235E
:1032500002F0A6FFD8E9A623CDE91C01DDE90401AF
:1032600002F09EFF52465B4602F09AFF0022CDE933
:103270001E0100232046294603F004FA48B92046DF
:1032800029467EA3D3E9002303F01AFA002801F0AF
:10329000018298ED663B8DED043B51EC130BDDE9AB
:1032A0000E2302F07DFFD8E9A82304460D46DDE990
:1032B000020102F075FF22462B4602F071FFD8E9A9
:1032C000AA23CDE92001DDE9000102F069FF2246D1
:1032D0002B4602F065FFD8E9AC23CDE92201504628
:1032E000594602F05DFF22462B4602F059FF0023AB
:1032F000CDE92401002230463946CBF6F0735A4C12
:1033000003F0C0F950B90023304639460022C3F615
:10331000F07303F0D5F9002801F0DE8398ED567BB9
:103320008DED0E7B51EC170BDDE90A2302F038FF1F
:10333000DDE90623CDE9100102F032FFD8E9AE2322
:1033400004460D46DDE9020102F02AFF22462B4623
:1033500002F026FFD8E9B023CDE92601DDE900011E
:1033600002F01EFF22462B4602F01AFFD8E9B223D4
:10337000CDE928015046594602F012FF22462B465D
:1033800002F00EFFDDE90C23CDE92A01DDE9100191
:1033900002F006FFD8E9B42304460D46DDE9020138
:1033A00002F0FEFE22462B4602F0FAFED8E9B623D2
:1033B000CDE92C01DDE9000102F0F2FE22462B46A8
:1033C00002F0EEFED8E9B823CDE92E015046594669
:1033D00002F0E6FE22462B4602F0E2FEDDE904237F
:1033E000CDE93001DDE9100102F0DAFED8E9BA23B7
:1033F00004460D46DDE9020102F0D2FE22462B46CC
:1034000002F0CEFECDE93201D8E9BC23DDE90001AE
:1034100002F0C6FE22462B4602F0C2FED8E9BE23C9
:10342000CDE934015046594602F0BAFE22462B46F9
:1034300002F0B6FE0022CDE93601002330463946BF
:10344000DFF8249003F01EF9E0B900233046394636
:103450000022C4F2080303F033F9002801F0DE80F3
:1034600010E000BFAFF3008028000020894160E534
:10347000D02209C0894160E5D02209409A999999E2
:1034800099D9224098ED4E1B8DED101B51EC110B7C
:10349000DDE90A2302F084FEDDE9062306460F4635
:1034A00002F07EFED8E9C02304460D46DDE90201A4
:1034B00002F076FE22462B4602F072FED8E9C223C5
:1034C000CDE93801DDE9000102F06AFE22462B4613
:1034D00002F066FED8E9C423CDE93A0150465946C8
:1034E00002F05EFE22462B4602F05AFEDDE90C2376
:1034F000CDE93C013046394602F052FED8E9C623F8
:1035000004460D46DDE9020102F04AFE22462B4642
:1035100002F046FED8E9C823CDE93E01DDE900010D
:1035200002F03EFE22462B4602F03AFED8E9CA23BC
:10353000CDE940015046594602F032FE22462B4664
:1035400002F02EFEDDE90423CDE942013046394682
:1035500002F026FED8E9CC2306460F46DDE902013B
:1035600002F01EFE32463B4602F01AFECDE944014F
:10357000D8E9CE23DDE9000102F012FE32463B46D7
:1035800002F00EFED8E9D023CDE946015046594657
:1035900002F006FE32463B4602F002FE0DA3D3E9DE
:1035A0000023CDE94801DDE90801094E03F06AF87E
:1035B000A0B9DDE9080104A3D3E9002303F080F8F2
:1035C000002801F04F8109E01F85EB51B81E09402A
:1035D00028000020112D4454FB2109C098ED263B02
:1035E0008DED0A3B51EC130BDDE9122302F0D8FDFF
:1035F000DDE9062306460F4602F0D2FDD8E9D223C4
:1036000004460D46DDE9020102F0CAFD22462B46C2
:1036100002F0C6FDD8E9D423CDE94A01DDE9000175
:1036200002F0BEFD22462B4602F0BAFDD8E9D623B1
:10363000CDE94C015046594602F0B2FD22462B46D8
:1036400002F0AEFDDDE90C23CDE94E0130463946EE
:1036500002F0A6FDD8E9D82304460D46DDE90201B3
:1036600002F09EFD22462B4602F09AFDD8E9DA23AD
:10367000CDE95001DDE9000102F092FD22462B4622
:1036800002F08EFDD8E9DC23CDE9520150465946BF
:1036900002F086FD22462B4602F082FDDDE904237E
:1036A000CDE954013046394602F07AFDD8E9DE23EF
:1036B00006460F46DDE9020102F072FD32463B4646
:1036C00002F06EFDCDE95601D8E9E023DDE9000105
:1036D00002F066FD32463B4602F062FDD8E9E22385
:1036E000CDE958015046594602F05AFD32463B4654
:1036F00002F056FDDDE90E23CDE95A01DDE90A01AC
:1037000002F04EFDDDE9062306460F4602F048FDB5
:10371000D8E9E42304460D46DDE9020102F040FD4C
:1037200022462B4602F03CFDD8E9E623CDE95C01B8
:10373000DDE9000102F034FD22462B4602F030FDA7
:10374000D8E9E823CDE95E015046594602F028FD4C
:1037500022462B4602F024FDDDE90C23CDE9600171
:103760003046394602F01CFDD8E9EA2304460D46EE
:10377000DDE9020102F014FD22462B4602F010FDA5
:10378000D8E9EC23CDE96201DDE9000102F008FD92
:1037900022462B4602F004FDCDE96401D8E9EE2370
:1037A0005046594602F0FCFC22462B4602F0F8FC3B
:1037B000DDE90423CDE966013046394602F0F0FC2C
:1037C000D8E9F02306460F46DDE9020102F0E8FCE5
:1037D00032463B4602F0E4FCD8E9F223CDE9680129
:1037E000DDE9000102F0DCFC32463B4602F0D8FC89
:1037F000D8E9F423CDE96A015046594602F0D0FCDD
:1038000032463B4602F0CCFCDDE91023CDE96C01E9
:10381000DDE90A0102F0C4FCDDE9062306460F4695
:1038200002F0BEFCD8E9F62304460D46DDE90201AC
:1038300002F0B6FC22462B4602F0B2FCD8E9F8238F
:10384000CDE96E01DDE9000102F0AAFC22462B461B
:1038500002F0A6FCD8E9FA23CDE97001504659469A
:1038600002F09EFC22462B4602F09AFCDDE90C2376
:10387000CDE972013046394602F092FCD8E9FC23CA
:1038800004460D46DDE9020102F08AFC22462B4681
:1038900002F086FCCDE97401D8E9FE23DDE90001E0
:1038A00002F07EFC22462B4602F07AFCDFF8A0965E
:1038B00009F58063CDE97601D3E9002350465946E6
:1038C00002F06EFC22462B4602F06AFCDDE904237E
:1038D000CDE978013046394602F062FC09F5816293
:1038E00006460F46D2E90023DDE9020102F058FC4A
:1038F00032463B4602F054FC09F58264D4E90023C9
:10390000CDE97A01DDE9000102F04AFC32463B468E
:1039100002F046FC09F58365CDE97C01D5E9002379
:103920005046594602F03CFC32463B4602F038FC19
:103930000022CDE97E010023DDE9080102F0A2FEAC
:1039400050B9DDE908010FF20063D3E9002302F06A
:10395000B7FE002800F0468698ED1E5B8DED085BF3
:1039600051EC150BDDE9122302F01AFCDDE9062308
:10397000DFF8E095CDE90A0102F012FC4E46F6E8C8
:10398000022307460C46DDE9020102F009FC3A4633
:10399000234602F005FCD6E90023CDE91201DDE95A
:1039A000000102F0FDFB3A46234602F0F9FBD9E99B
:1039B0000423CDE980015046594602F0F1FB3A4616
:1039C000234602F0EDFBDDE90C23CDE98201DDE9C0
:1039D0000A0102F0E5FBD9E9062306460D46DDE9BA
:1039E000020102F0DDFB32462B4602F0D9FBD9E999
:1039F0000823CDE98401DDE9000102F0D1FB324664
:103A00002B4602F0CDFBD9E90A23CDE986015046C9
:103A1000594602F0C5FB32462B4602F0C1FBDDE9F8
:103A20000423CDE98801DDE90A0102F0B9FBD9E9F7
:103A30000C2307460C46DDE9020102F0B1FB3A46D1
:103A4000234602F0ADFBCDE90A01D9E90E23DDE9F9
:103A5000000102F0A5FB3A46234602F0A1FBD9E99A
:103A60001023CDE98A015046594602F099FB3A46A7
:103A7000234602F095FBDDE90E23CDE98C01DDE95B
:103A8000080102F08DFBDDE9062306460F4602F031
:103A900087FBD9E9122304460D46DDE9020102F055
:103AA0007FFB22462B4602F07BFBD9E91423CDE9AC
:103AB0000E01DDE9000102F073FB22462B4602F005
:103AC0006FFBD9E91623CDE98E015046594602F025
:103AD00067FB22462B4602F063FBDDE90C23CDE9B0
:103AE00090013046394602F05BFBD9E918230446C1
:103AF0000D46DDE9020102F053FB22462B4602F09F
:103B00004FFBD9E91A23CDE99201DDE9000102F06A
:103B100047FB22462B4602F043FBCDE99401D9E94D
:103B20001C235046594602F03BFB22462B4602F02E
:103B300037FBDDE90423CDE996013046394602F032
:103B40002FFBD9E91E2306460F46DDE9020102F0EC
:103B500027FB32463B4602F023FBD9E92023CDE97F
:103B60009801DDE9000102F01BFB32463B4602F002
:103B700017FBD9E92223CDE99A015046594602F0B4
:103B80000FFB32463B4602F00BFBDDE91023CDE98B
:103B90009C01DDE9080102F003FBDDE9062306468E
:103BA0000F4602F0FDFAD9E9242304460D46DDE96B
:103BB000020102F0F5FA22462B4602F0F1FAD9E9A9
:103BC0002623CDE90801DDE9000102F0E9FA2246E9
:103BD0002B4602F0E5FAD9E92823CDE91001504639
:103BE000594602F0DDFA22462B4602F0D9FADDE909
:103BF0000C23CDE99E013046394602F0D1FAD9E9CD
:103C00002A2304460D46DDE9020102F0C9FA2246E4
:103C10002B4602F0C5FACDE90C01D9E92C23DDE9E8
:103C2000000102F0BDFA22462B4602F0B9FAD9E9AA
:103C30002E23CDE9A0015046594602F0B1FA2246A2
:103C40002B4602F0ADFADDE90423CDE9A2013046AE
:103C5000394602F0A5FAD9E9302306460F46DDE9D8
:103C6000020102F09DFA32463B4602F099FAD9E988
:103C70003223CDE9A401DDE9000102F091FA3246D8
:103C80003B4602F08DFAD9E93423CDE9A60150462E
:103C9000594602F085FA32463B4602F081FADDE9E8
:103CA0001623CDE9A801DDE9AA0102F0C7F8DDE994
:103CB000182302F0C3F8DDE91A2302F0BFF8DDE9AA
:103CC0001C2302F0BBF8DDE91E2302F0B7F8DDE9A2
:103CD000202302F0B3F8DDE9222302F0AFF8DDE99A
:103CE000242302F0ABF8DDE9262302F0A7F8DDE992
:103CF000282302F0A3F8DDE92A2302F09FF8DDE98A
:103D00002C2302F09BF8DDE92E2302F097F8DDE981
:103D1000302302F093F8DDE9322302F08FF8DDE979
:103D2000342302F08BF8DDE9362302F087F8DDE971
:103D3000382302F083F8DDE93A2302F07FF8DDE969
:103D40003C2302F07BF8DDE93E2302F077F8DDE961
:103D5000402302F073F8DDE9422302F06FF8DDE959
:103D6000442302F06BF8DDE9462302F067F8DDE951
:103D7000482302F063F8DDE94A2302F05FF8DDE949
:103D80004C2302F05BF8DDE94E2302F057F8DDE941
:103D9000502302F053F8DDE9522302F04FF8DDE939
:103DA000542302F04BF8DDE9562302F047F8DDE931
:103DB000582302F043F8DDE95A2302F03FF8DDE929
:103DC0005C2302F03BF8DDE95E2302F037F8DDE921
:103DD000602302F033F8DDE9622302F02FF8DDE919
:103DE000642302F02BF8DDE9662302F027F8DDE911
:103DF000682302F023F8DDE96A2302F01FF8DDE909
:103E00006C2302F01BF8DDE96E2302F017F8DDE900
:103E1000702302F013F8DDE9722302F00FF8DDE9F8
:103E2000742302F00BF8DDE9762302F007F8DDE9F0
:103E3000782302F003F8DDE97A2301F0FFFFDDE9E2
:103E40007C2301F0FBFFDDE97E2301F0F7FFDDE9D4
:103E5000122301F0F3FFDDE9802301F0EFFFDDE93C
:103E6000822301F0EBFFDDE9842301F0E7FFDDE9C8
:103E7000862301F0E3FFDDE9882301F0DFFFDDE9C0
:103E80000A2301F0DBFFDDE98A2301F0D7FFDDE93A
:103E90008C2301F0D3FFDDE90E2301F0CFFFDDE934
:103EA0008E2301F0CBFFDDE9902301F0C7FFDDE9B0
:103EB000922301F0C3FFDDE9942301F0BFFFDDE9A8
:103EC000962301F0BBFFDDE9982301F0B7FFDDE9A0
:103ED0009A2301F0B3FFDDE99C2301F0AFFFDDE998
:103EE000082301F0ABFFDDE9102301F0A7FFDDE9B6
:103EF0009E2301F0A3FFDDE90C2301F09FFFDDE924
:103F0000A02301F09BFFDDE9A22301F097FFDDE98B
:103F1000A42301F093FFDDE9A62301F08FFFDDE983
:103F2000A82301F08BFFCDE9AC01D9E9362302F0DB
:103F3000C7FB002800F0538300210020C3F6F07176
:103F40000AE000BFAFF3008048E17A14AE471740A3
:103F5000280000204804002040F22802C2F200029B
:103F600002F5A063D3E9002302F0A0FB002800F0D3
:103F70002F8340F22800C2F2000090ED0E6BDDE9C5
:103F8000160153EC162B8DED046B02F009F90DF5BB
:103F9000A86904460D4640F2280669E9A245DDE914
:103FA0000423DDE9AA01C2F2000602F0F9F896ED59
:103FB0000C7BC9E9020153EC172BDDE918018DEDEB
:103FC000007B02F0EDF8DDE90423C9E90401DDE935
:103FD0001A0102F0E5F840F22807DDE90023C9E9FB
:103FE0000601C2F20007DDE91C0102F0D9F897EDE5
:103FF0000A0BC9E9080153EC102BDDE91E018DED18
:10400000020B02F0CDF8DDE90023C9E90A01DDE980
:10401000200102F0C5F8DDE90223C9E90C01DDE960
:10402000220102F0BDF840F22802C2F20002D2E9F9
:104030000867C9E90E0132463B46DDE9240102F07A
:10404000AFF8DDE90423C9E91001DDE9260102F03A
:10405000A7F8DDE90023C9E91201DDE9280102F032
:104060009FF8DDE90223C9E91401DDE92A0102F024
:1040700097F8DDE90023C9E91601DDE92C0102F01A
:104080008FF8DDE90223C9E91801DDE92E0102F00C
:1040900087F832463B46C9E91A01DDE9300102F0F2
:1040A0007FF8DDE90223C9E91C01DDE9320102F0F4
:1040B00077F832463B46C9E91E01DDE9340102F0DA
:1040C0006FF840F2280EC2F2000EDEE906ABC9E935
:1040D000200152465B46DDE9360102F061F8DDE978
:1040E0000023C9E92201DDE9380102F059F8DDE9D0
:1040F0000223C9E92401DDE93A0102F051F8324610
:104100003B46C9E92601DDE93C0102F049F8DDE959
:104110000223C9E92801DDE93E0102F041F83246F7
:104120003B46C9E92A01DDE9400102F039F852466F
:104130005B46C9E92C01DDE9420102F031F8324663
:104140003B46C9E92E01DDE9440102F029F8524657
:104150005B46C9E93001DDE9460102F021F840F291
:104160002803C2F2000393ED041BC9E9320153ECAA
:10417000112BDDE948018DED061B02F011F8DDE998
:104180000423C9E93401DDE94A0102F009F8DDE957
:104190000023C9E93601DDE94C0102F001F8DDE94F
:1041A0000223C9E93801DDE94E0101F0F9FFDDE93B
:1041B0000023C9E93A01DDE9500101F0F1FFDDE931
:1041C0000223C9E93C01DDE9520101F0E9FF324671
:1041D0003B46C9E93E01DDE9540101F0E1FFDDE9BB
:1041E0000223C9E94001DDE9560101F0D9FF324659
:1041F0003B46C9E94201DDE9580101F0D1FF5246D1
:104200005B46C9E94401DDE95A0101F0C9FFDDE976
:104210000023C9E94601DDE95C0101F0C1FFDDE9E8
:104220000223C9E94801DDE95E0101F0B9FF324628
:104230003B46C9E94A01DDE9600101F0B1FFDDE972
:104240000223C9E94C01DDE9620101F0A9FF324610
:104250003B46C9E94E01DDE9640101F0A1FF524688
:104260005B46C9E95001DDE9660101F099FF32467C
:104270003B46C9E95201DDE9680101F091FF524670
:104280005B46C9E95401DDE96A0101F089FF524644
:104290005B46C9E95601DDE96C0101F081FFDDE90A
:1042A0000623C9E95801DDE96E0101F079FFDDE976
:1042B0000223C9E95A01DDE9700101F071FF52469C
:1042C0005B46C9E95C01DDE9720101F069FF324634
:1042D0003B46C9E95E01DDE9740101F061FF524628
:1042E0005B46C9E96001DDE9760101F059FFDDE9CE
:1042F0000623C9E96201DDE9780101F051FF524668
:104300005B46C9E96401DDE97A0101F049FFDDE9B5
:104310000623C9E96601DDE97C0101F041FF40F2B5
:104320002802C2F2000292ED022BC9E9680153ECA7
:10433000122BDDE97E018DED042B01F031FFDDE96B
:104340000023C9E96A01DDE9120101F029FFDDE975
:104350000223C9E96C01DDE9800101F021FF324649
:104360003B46C9E96E01DDE9820101F019FFDDE993
:104370000223C9E97001DDE9840101F011FF324631
:104380003B46C9E97201DDE9860101F009FF5246A9
:104390005B46C9E97401DDE9880101F001FF32469D
:1043A0003B46C9E97601DDE90A0101F0F9FE524612
:1043B0005B46C9E97801DDE98A0101F0F1FEDDE93A
:1043C0000023C9E97A01DDE98C0101F0E9FEDDE9AC
:1043D0000223C9E97C01DDE90E0101F0E1FE32466C
:1043E0003B46C9E97E01DDE98E0101F0D9FE524666
:1043F0005B46C9E98001DDE9900101F0D1FE32465A
:104400003B46C9E98201DDE9920101F0C9FE52464D
:104410005B46C9E98401DDE9940101F0C1FEDDE9F3
:104420000623C9E98601DDE9960101F0B9FE52468D
:104430005B46C9E98801DDE9980101F0B1FEDDE9DB
:104440000623C9E98A01DDE99A0101F0A9FEDDE947
:104450000423C9E98C01DDE99C0101F0A1FE32468B
:104460003B46C9E98E01DDE9080101F099FE52469B
:104470005B46C9E99001DDE9100101F091FEDDE93B
:104480000623C9E99201DDE99E0101F089FE524649
:104490005B46C9E99401DDE90C0101F081FEDDE92B
:1044A0000623C9E99601DDE9A00101F079FEDDE905
:1044B0000423C9E99801DDE9A20101F071FEDDE9FB
:1044C0000623C9E99A01DDE9A40101F069FEDDE9ED
:1044D0000423C9E99C01DDE9A60101F061FEDDE9E3
:1044E0000423C9E99E01DDE9A80101F059FE0DF59B
:1044F000A766C9E9A00120462946D9E9022309F1A6
:10450000080401F09BFC09F11009D4E9022301F031
:1045100095FCB145F1D107460D460022DDE9AC011D
:10452000002302F0AFF8002840F0408238462946C8
:10453000DDE9AC2301F05EFF954BD3E9002301F0E8
:104540002FFE0C46214600220023064602F09AF870
:10455000002840F009833046214685A3D3E9002393
:1045600001F01EFE4FF0000904460D464FF0000812
:10457000C3F6F079012641F2E017C2F200070023EA
:10458000C4F24503002220462946C7E90445C7E98D
:10459000068901F005FE02F09DF84FF48061C4F237
:1045A000000148F2B0239DED144B4863C4F241234F
:1045B00041F2D010C2F200001E6080ED008B80ED51
:1045C000024B51B00DF5806DBDEC028BBDE8F08F54
:1045D00040F22801C2F20001D1E90001ACE700205D
:1045E0000021B9E4DDE9080163A3D3E9002302F067
:1045F0005DF8002800F0BC81DDE9080160A3D3E983
:10460000002302F049F8002800F01B8399ED224BAB
:104610008DED084B51EC140BFFF7A4B90023304685
:1046200039460022C3F6F07302F022F8002840F069
:1046300097810023304639460022C3F6F07302F01A
:1046400021F8002840F06D8409F5B363D3E90045F3
:1046500032463B462046294601F0EEFB0F4609F55F
:10466000B261D1E9002306462946204601F0E4FB69
:104670000B4600210246C3F6F071002001F0BAFE9D
:1046800002460B463046394601F08AFDCDE910015D
:10469000FEF7FEBE204629463BA3D3E9002301F0E6
:1046A000E7FF002840F054812046294636A3D3E98D
:1046B000002301F0E7FF002800F05583DFF8D490D5
:1046C000B9EC021B204653EC112B29468DED041B3F
:1046D00001F0B2FBDDE9042304460D46D9E90001EF
:1046E00001F0AAFB02460B462046294601F082FE55
:1046F000CDE90401FEF7D3BD002350465946002200
:10470000C3F6F07301F0B4FF002840F01D810023D0
:10471000504659460022C3F6F07301F0B3FF00285B
:1047200040F00482DFF8709079E80201CDE90C01D5
:1047300052465B46DDE90C0101F07EFBD9E900231E
:1047400082468B46DDE90C0101F076FB0B46002129
:104750000246C3F6F071002001F04CFE02460B4603
:104760005046594601F01CFD82468B46FEF730BD8F
:10477000AAAAAAAAAAAA1040666666666666004049
:10478000B81E85EB51B81040894160E5D022094040
:10479000300500206805002020060020204629461C
:1047A0000022002301F064FF002840F05C812046D5
:1047B00029460022002301F065FF002840F0F58320
:1047C00009F5A36393ED005B224651EC150B2B46D4
:1047D0008DED045B01F030FBCDE90C0109F5A26120
:1047E000D1E90023DDE9040101F026FB0B4600219D
:1047F0000246C3F6F071002001F0FCFD02460B46B4
:10480000DDE90C0101F0CCFCDDE90E23CDE90C0162
:1048100001F0C6FCD9E9A223CDE90401DDE90201DA
:1048200001F0BEFCDDE9042301F0BAFCD9E9A423C0
:10483000CDE91A01DDE9040101F0B2FCDDE9002354
:1048400001F0AEFCD9E9A623CDE91C01DDE90401A4
:1048500001F0A6FC52465B4601F0A2FCCDE91E0128
:10486000FEF70DBDDDE908010022002301F000FF85
:10487000002840F02981DDE908010022002301F031
:1048800001FF002840F0F08306F5C763D3E9004537
:10489000DDE908232046294601F0CEFACDE90A01D8
:1048A00006F5C661D1E900232046294601F0C4FA85
:1048B0000B4600210246C3F6F071002001F09AFD7C
:1048C00002460B46DDE90A0101F06AFCCDE90A0166
:1048D000FEF78ABEDDE90645FEF701BCDDE90667A5
:1048E000FEF7B7BBB246BB46FEF764BBCDE908672F
:1048F000FEF70FBB9DED000B00F086FD002800F0D9
:104900004381BD4A41F2E01492ED002BC2F2000453
:1049100094ED003B41F2E011C2F200018DED002B5D
:1049200091ED028B8DED143BDDE90001FEF7B6BB86
:1049300045EC104B00F068FD002800F06381AE4F9D
:10494000D7E90045FEF7C2BAD8E93AABFEF740BC5A
:1049500098ED6A2B8DED042B51EC120BFEF79FBCEA
:1049600099ED520B8DED100B51EC100BFEF790BD35
:1049700009F5CC61D1E90067DDE9080132463B4623
:1049800001F05AFA044609F5CD600D4632463B4621
:10499000D0E9000101F050FA02460B4620462946B4
:1049A00001F028FDCDE90801FEF7DCBF98ED123BD0
:1049B0008DEDAC3BBAE5DDE9080189A3D3E900231D
:1049C00001F074FE002840F04A82DFF83092F9E8E6
:1049D0000267DDE9080132463B4601F02DFA324616
:1049E00004460D463B46D9E9000101F025FA02468E
:1049F0000B462046294601F0FDFCCDE90A01FEF7F1
:104A00009DBA0023504659460022CBF6F07301F0C0
:104A10002FFE002800F0CD8198ED323B8DED023B5A
:104A2000FEF7DEBA0023304639460022CBF6F0739B
:104A300001F01EFE002800F0448298ED4A7B8DEDC7
:104A4000127BFEF71CBB2046294667A3D3E900234F
:104A500001F00EFE002800F0DA8198ED626B8DED1A
:104A6000066BFEF760BB99ED727BDDE90E0153EC3E
:104A7000172B8DED0C7B01F093FBD9E9A223CDE937
:104A80000401DDE9020101F08BFBDDE9042301F003
:104A900087FBD9E9A423CDE91A01DDE9040101F07E
:104AA0007FFBDDE9002301F07BFBD9E9A623CDE9FB
:104AB0001C01DDE9040101F073FB52465B4601F085
:104AC0006FFBCDE91E01F9E596ED2A2B8DED0A2B42
:104AD00051EC120BFEF788BD304639460022002308
:104AE00001F0C6FD002800F00D8194ED5A6B8DEDAC
:104AF0000E6B51EC160BFEF717BC504659460022C0
:104B0000002301F0B5FD002800F0C18099ED422B93
:104B1000D9E99E2351EC120B8DED002B01F040FBE7
:104B2000DDE9042301F03CFBCDE9AA01DFF8D090D8
:104B3000B9EC024B504653EC142B59468DED0C4BFF
:104B400001F07AF9DDE90C2382468B46D9E90001B0
:104B500001F072F902460B465046594601F04AFCF4
:104B600082468B46FEF734BB304604F1004120A359
:104B7000D3E9002301F014FB002604460D464FF054
:104B800000084FF00009F6E49DED000B00F002FC78
:104B900000287FF4B6AE45EC104B00F035FC002841
:104BA0007FF4AFAE45EC104B00F0F4FB00287FF42F
:104BB000A8AEDDE900012B462246FDF7C1FF41F218
:104BC000E013C2F2000393ED001BCDE9000193ED69
:104BD000028B8DED141BFEF761BA00BFAFF30080AE
:104BE000AE47E17A14AE0BC0894160E5D02209C01E
:104BF000AAAAAAAAAAAA104020120020A806002049
:104C00002806002045EC104B00F0C4FB00287FF480
:104C100096AE47EC106B00F0F7FB00287FF48FAEE8
:104C200047EC106B00F0B6FB00287FF488AE2046FE
:104C3000294632463B46FDF783FF04460D46FEF704
:104C400045B909F5CB63D3E90067DDE908233046B0
:104C5000394601F0F1F809F5CA6CDCE90023044695
:104C60000D463046394601F0E7F80B460021024672
:104C7000C3F6F071002001F0BDFB02460B46204652
:104C8000294601F08DFACDE90801FEF76BBE5046CA
:104C900059460022002301F0F5FC002840F0028272
:104CA00009F5BB6393ED000B524651EC100B5B46CC
:104CB0008DED000B01F0C0F8CDE90C0109F5BA61EA
:104CC000D1E90023DDE9000101F0B6F80B4600212F
:104CD0000246C3F6F071002001F08CFB02460B4641
:104CE000DDE90C0101F05CFAD9E99E23CDE9000170
:104CF00001F056FADDE9042301F052FACDE9AA01E8
:104D0000FEF75ABA304639460022002301F0BAFCB9
:104D1000002840F0F18104F5AF6393ED004B32467B
:104D200051EC140B3B468DED0E4B01F085F8CDE9AF
:104D3000100104F5AE61D1E90023DDE90E0101F0B7
:104D40007BF80B4600210246C3F6F071002001F00B
:104D500051FB02460B46DDE9100101F021FACDE9D5
:104D60000E01FEF7E1BADFF8F09279E80223CDE90F
:104D70000423DDE9040122462B4601F05DF8D9E960
:104D8000002304460D46DDE9040101F055F80B4609
:104D900000210246C3F6F071002001F02BFB024611
:104DA0000B462046294601F0FBF9CDE90401FEF748
:104DB00076BA0023504659460022CBF6F07301F034
:104DC00061FC002840F0D581A14E76E802455246AC
:104DD0005B462046294601F02FF8D6E90023CDE9AD
:104DE00002012046294601F027F80B460021024621
:104DF000C3F6F071002001F0FDFA02460B46DDE932
:104E0000020101F0CDF9CDE90201FEF7E9B8204633
:104E100029468BA3D3E9002301F034FC002800F0DD
:104E20009E80DFF83892B9EC025B204653EC152BDC
:104E300029468DED005B00F0FFFFDDE90023CDE9A1
:104E40000601D9E9000100F0F7FF02460B46DDE953
:104E5000060101F0CFFACDE90601FEF764B9DDE9FC
:104E6000080179A3D3E9002301F016FC28B198EDDD
:104E70001A0B8DED0A0BFEF761B8DFF8E4A17AE8B2
:104E80000267DDE908233046394600F0D5FFDAE94C
:104E9000002304460D463046394600F0CDFF0B4650
:104EA00000210246C3F6F071002001F0A3FA024689
:104EB0000B462046294601F073F9CDE90A01FEF7B9
:104EC0003DB80023304639460022CBF6F07301F09E
:104ED000D9FB002840F030815E4C74E80201CDE936
:104EE000060132463B46DDE9060100F0A5FFD4E9A4
:104EF0000023CDE90401DDE9060100F09DFF0B462A
:104F000000210246C3F6F071002001F073FA024658
:104F10000B46DDE9040101F043F9CDE91201FEF78A
:104F2000AEB809F5B460D0E90045394630462246AE
:104F30002B4600F081FF09F5B56206460F462B4669
:104F4000D2E90001224600F077FF02460B463046C8
:104F5000394601F04FFACDE91001FEF799BADFF8B2
:104F6000049179E80223CDE90023DDE9000122461E
:104F70002B4600F061FFD9E90023CDE90601DDE908
:104F8000000100F059FF0B4600210246C3F6F07104
:104F9000002001F02FFA02460B46DDE9060101F080
:104FA000FFF8CDE90601FEF7BEB809F5A46292ED5F
:104FB000006B204653EC162B29468DED046B00F058
:104FC0003BFF044609F5A5600D46DDE90423D0E961
:104FD000000100F031FF02460B462046294601F051
:104FE00009FADDE90E23CDE90C0101F0D9F8D9E980
:104FF000A22304460D46DDE9020101F0D1F8224664
:105000002B4601F0CDF8D9E9A423CDE91A012046B9
:10501000294601F0C5F8DDE9002301F0C1F8D9E91E
:10502000A623CDE91C012046294601F0B9F85246D5
:105030005B4601F0B5F8CDE91E01FEF72AB900BFC5
:10504000894160E5D02209C03D0AD7A3703DFEBF6B
:1050500040060020E00500206005002088050020B3
:10506000A00600208005002006F5C860D0E90045B4
:10507000DDE9080122462B4600F0DEFE06F5C96296
:10508000CDE90A012B46D2E90001224600F0D4FE08
:1050900002460B46DDE90A0101F0ACF9CDE90A014F
:1050A000FEF7A2BA09F5BC6090ED001B594653EC1F
:1050B000112B50468DED001B00F0BEFE09F5BD62C0
:1050C00082468B46D2E90001DDE9002300F0B4FE00
:1050D00002460B465046594601F08CF9D9E99E2309
:1050E000CDE9000101F05CF8DDE9042301F058F896
:1050F000CDE9AA01FEF76AB804F5B06090ED005B57
:10510000394653EC152B30468DED0E5B00F094FEC6
:1051100004F5B162CDE91001D2E90001DDE90E2309
:1051200000F08AFE02460B46DDE9100101F062F94B
:10513000CDE90E01FEF7F8B81B4DB5EC028B3046F9
:1051400053EC182B39468DED068B00F075FEDDE92A
:105150000623CDE90401D5E9000100F06DFE024609
:105160000B46DDE9040101F045F9CDE91201FDF737
:1051700086BF0E4FF7E80245504622462B46594659
:1051800000F05AFE2246CDE902012B46D7E9000184
:1051900000F052FE02460B46DDE9020101F02AF959
:1051A000CDE90201FDF71CBFE805002048060020FC
:1051B00038B5082000F0BCF841F2E010C2F200005F
:1051C0000446002344F8043B043440F2280144F828
:1051D000043B44F8043B44F8043B44F8043B44F8E3
:1051E000043B44F8043B44F8043B44F8043BC2F25B
:1051F00000014360204691ED807B91ED8A0B41F2E6
:10520000C81540F8043BC2F2000541F2D012C2F2C8
:1052100000022B6082ED007B82ED020B0360FDF744
:1052200079F9FDF79DFAFDF7E9FBFDF7FFFBFDF7C7
:1052300001FCBDE83840FDF763BC00BF704700BF0C
:10524000FEE700BF4FF0FF30704700BF41F234234C
:10525000C2F200030C221A604FF0FF30704700BF0B
:1052600041F23423C2F200030B221A604FF0FF30E8
:10527000704700BF4FF400534B600020704700BFE1
:10528000012070470020704741F23423C2F200032E
:1052900016221A604FF0FF30704700BF41F23423EE
:1052A000C2F200031F221A604FF0FF30704700BFA8
:1052B000002070470A4A136873B1EFF30881181889
:1052C000884202D8106018467047064B0C221A60BC
:1052D0004FF0FF3318467047034B1360EDE700BFF4
:1052E000040F0020341200203812002000207047E4
:1052F0004FF400534B600020704700BF4FF0FF3069
:10530000704700BF41F23423C2F2000302221A6048
:105310004FF0FF30704700BF41F23423C2F2000368
:105320000A221A604FF0FF30704700BF002070471C
:1053300008B5FCF70DFE41F22023C2F2000383ED15
:10534000000BFCF70DFE41F21020C2F2000080EDD0
:10535000000A00F09DFA41F21821C2F2000181ED2D
:10536000000B00F09DFA41F21422C2F2000282ED1D
:10537000000A00F09BFA41F22823C2F2000383EDF9
:10538000000B00F09DFA41F23020C2F2000080EDE7
:10539000000A08BD38B555EC104B0C4B10EE100A46
:1053A0002946D3E9002301F063F968B9084A294680
:1053B0002046D2E9002301F05BF9012108B1C8B20F
:1053C00038BD0146C8B238BD012038BD18120020D2
:1053D000281200200A4BD3ED007AB4EE670AF1EEF2
:1053E00010FA0AD00748D0ED000AB4EE600AF1EED8
:1053F00010FA14BF0020012070470120704700BF41
:105400001412002030120020002070470020704746
:1054100008B54FF48053C4F20103984228D04FF4EA
:105420008841C4F2000188422CD04FF49042C4F26B
:105430000002904232D04FF49843C4F200039842E5
:1054400038D04FF4A041C4F2000188423ED04FF45E
:10545000A052C4F20102904200D008BD20200121D8
:10546000FBF73CF920200021BDE80840FBF736B9E6
:1054700010200121FBF732F910200021BDE808407F
:10548000FBF72CB901214FF40030FBF719F94FF469
:1054900000300021BDE80840FBF712B901214FF4AC
:1054A0008020FBF70DF94FF480200021BDE8084073
:1054B000FBF706B901214FF40020FBF701F94FF487
:1054C00000200021BDE80840FBF7FAB801214FF4A5
:1054D0008010FBF7F5F84FF480100021BDE808407C
:1054E000FBF7EEB8028ACB8822F440521204F0B5E2
:1054F000120C04461A4348890F898E880D46898903
:105500002282A38923F4B05222F00C033E431A04F2
:105510000643B3B2100C43EA0006A681A28A22F425
:10552000407003041E0C0E4385B0A6826846FAF74D
:10553000CFFF4FF48051C4F201018C422CD04FF4C4
:10554000A052C4F20102944226D0A089029B06B266
:10555000002E26DB2D6803EB830101EB8102AB00FB
:10556000B2FBF3F148F21F53A089C5F2EB13A3FB82
:105570000156720900B264251601002802FB1511BC
:1055800018DB0D013235A3FB0553C3F3431232433D
:1055900091B2218105B0F0BDA089039B06B2002E17
:1055A000D8DA286803EB830606EB86054200B5FBD4
:1055B000F2F1D7E7C8003230A3FB0013C3F3421265
:1055C0003243E5E700234FF416520C21026083803A
:1055D000C380038141818381704700BF0A88038AA9
:1055E00030B44D888C88C9882A4323F470632243E1
:1055F0001B040A4392B2190C42EA0103038230BC35
:10560000704700BF0023038043808380C3807047BE
:10561000838929B923F400510A04130C838170474C
:1056200099B241F400528281704700BF038B03F4AA
:105630007F420283038B9AB211430183704700BFFC
:10564000838919B959044A0C828170476FEA434330
:105650006FEA53418AB28281704700BF838A29B9B9
:1056600023F400610A04130C8382704799B241F459
:1056700000628282704700BFC905CA0D82807047F0
:105680008088C105C80D7047038A23F00F021304F8
:105690001A0C0282038A9AB211430182704700BF3A
:1056A000838929B923F002010A04130C838170470E
:1056B00099B241F002028281704700BF838923F4CE
:1056C000006213041A0C828183899AB2114381818A
:1056D000704700BF038A23F0200213041A0C0282D1
:1056E000038A9AB211430182704700BF038A29B925
:1056F00023F480410A04130C0382704799B241F4E9
:1057000080420282704700BF838999B241F0010252
:1057100082817047838A29B923F008010A04130C97
:105720008382704799B241F008028282704700BFBD
:10573000038BDAB20283038B9AB242EA012101831E
:10574000704700BF838A29B923F020010A04130C93
:105750008382704799B241F020028282704700BF75
:10576000838A29B923F010010A04130C838270473D
:1057700099B241F010028282704700BF838A23F001
:10578000040213041A0C8282838A9AB21143818222
:10579000704700BF838A29B923F002010A04130C61
:1057A0008382704799B241F002028282704700BF43
:1057B000838A9BB21AB923EA010181827047194397
:1057C0008182704701F01F0310B4C1F3421101241C
:1057D000A14204FA03F30DD002290DD014302AB9E6
:1057E000026822EA0301016010BC7047026813439B
:1057F0000360F9E70C30F2E71030F0E70388194254
:105800000CBF002001207047C9438AB20280704754
:1058100010B4C1F34213012401F01F02A34204FAA1
:1058200002F214D0022B0CBF038A838A9BB213406E
:10583000008882B24BB1090A012303FA01F0104239
:105840000CBF0020012010BC70471846FBE783897D
:105850009BB21340ECE700BF090A012303FA01F2EF
:10586000D1438BB203807047006810B540000C46EE
:1058700000F030FC04A3D3E9002300F091FCC4E95C
:10588000000110BDAFF30080182D4454FB21493FA7
:105890009FED010B704700BF000000000000F07F8B
:1058A0009FED010A704700BF0000807F9FED020B53
:1058B000704700BFAFF30080000000000000F0FF61
:1058C0009FED010A704700BF000080FFAFF300802A
:1058D00008B50023C4F2020398423CD04FF4806123
:1058E000C4F20201884240D04FF40062C4F20202C6
:1058F000904244D04FF44063C4F20203984248D02F
:105900004FF48051C4F2020188424CD04FF4A052AF
:10591000C4F20202904250D04FF4C053C4F20203CA
:10592000984254D04FF4E051C4F20201884258D05A
:105930004FF40052C4F20202904200D008BD01218F
:105940004FF48070FAF792FE4FF480700021BDE8AA
:105950000840FAF78BBE01200146FAF787FE0120C6
:105960000021BDE80840FAF781BE02200121FAF7C4
:105970007DFE02200021BDE80840FAF777BE042032
:105980000121FAF773FE04200021BDE80840FAF770
:105990006DBE08200121FAF769FE08200021BDE84C
:1059A0000840FAF763BE10200121FAF75FFE1020CD
:1059B0000021BDE80840FAF759BE20200121FAF77E
:1059C00055FE20200021BDE80840FAF74FBE4020D8
:1059D0000121FAF74BFE40200021BDE80840FAF70C
:1059E00045BE80200121FAF741FE80200021BDE85C
:1059F0000840FAF73BBE00BF2DE9F00F0E6884B0F7
:105A00000022884613464FF0010B00968A4607E0B5
:105A1000DDF80490A14539D04B1CAA1C102B54D0A2
:105A2000009E0BFA03F5591C05EA060C0BFA01F46B
:105A30002640AC45019602F10205E9D1032606FA9B
:105A400002F907689AF804806FEA09094E463E4059
:105A500006600768CDF80C9008FA02F908F1FF38E3
:105A600049EA0709B8F1010FC0F8009031D9C368BD
:105A7000039F9AF807C0DDF804903B40C360C368F9
:105A80000CFA02F21A43A145C260C5D1032304688F
:105A90009AF80420AB40DB431C400460046802FA1F
:105AA00005FC013A4CEA0404012A046033D9C268B7
:105AB0009AF807401340C360C26804FA05F3134321
:105AC000C3604B1CAA1C102BAAD104B0BDE8F00F78
:105AD0007047D0F80880039E9AF806709AF80590EF
